:02000000392A9B
:0E000600213083120313FD00FD0B07280800B4
:06001400000000000800DE
:10001A000F3083120313FC004730FD00FD0B132839
:0A002A00FC0B132800000000080082
:1000340083120317A21B21280313881123280313F7
:1000440088150317221B2928031308112B280313CF
:1000540008150317A21A3128031388103328031331
:1000640088140317221A3928031308103B28031392
:1000740008146E183F2808164028081288160A200B
:1000840088120317A2194928031388114B28031354
:100094008815031722195128031308115328031331
:1000A40008150317A2185928031388105B28031393
:1000B40088140317221861280313081063280313F4
:1000C40008146E18672808166828081288160A206B
:0E00D40088126E1C6F280D2070280320080073
:1000E200831203136E1003172108A2001A206E1444
:0200F200080004
:1000F40083160313EE01EF01831203171E08831600
:1001040003136F02031D8C28831203171D08831623
:1001140003136E020318A42883120317900191019C
:1001240000301102031D9828A530100203189E28E0
:10013400900A0319910A922883160313EE0A0319ED
:06014400EF0A7E2808000E
:10014A0083120313F801F9011030FC00710DF80D48
:10015A00F90D7408F8027508031C750FF9020318E3
:10016A00BD287408F80775080318750FF9070310F6
:0A017A00F00DF10DFC0BAB2808009E
:10018400D4288030831203179D00E728C0309D00D7
:10019400E72894309D00E728D4309D00E72880307C
:1001A4009D00E728831203171D08013A0319C32889
:1001B4001D08023A0319C8281D08033A0319CB285D
:1001C4001D08043A0319CE28D1281E03F0001D0887
:1001D400F00770089D007008A2001A206E10031723
:1001E400A00120081F078400000803190229200821
:1001F4001F0784000008A10071200317A00AF32838
:0602040003136E14080054
:10020A0083120313FB01FA01F9018030F800F10CA3
:10021A00F00C031C19297408F90775080318750FDF
:10022A00FA070318FB0A0310F01F21297408FA07BA
:10023A0075080318750FFB07FB0CFA0CF90CF80C80
:10024A00031C0C297B08F3007A08F2007908F100F4
:06025A007808F000080026
:0E026000831603136D088A006C0882000800E4
:10026E00013083120317A2001A20013003179D00DC
:10027E0001309E002A309F00C220883003179D0057
:08028E0013309E007A200800E5
:10029600AC30831203179D000D309E007A2001308A
:1002A60083120317A2001A20013003179D000130A4
:1002B6009E0020309F00C220023086006030031767
:0E02C6009D00EA309E007A2083128601080017
:1002D400831203179B0105301B02031878291B089E
:1002E4001A078400203080009B0A6D291B081A0716
:1002F400840080019B031B081A079C000A30F40049
:10030400F5011808F0001908F100A5207808F0009C
:100314007908F1003030F00703171C0884007008D6
:1003240080000A30F400F5011808F0001908F10003
:10033400A520700803179800710899000030710611
:10034400031DA62900307006031DA929AB299B03B0
:040354007D290800F7
:10035800831203131F151F1DB229AF291E08F100B0
:10036800F00183161E08F0040030F104F430F400A4
:100378000130F5000521FF30F4000330F500A52019
:0203880008006B
:10038A0030218A110A128000840AEC0A0319ED0A44
:08039A00F003031DC529080052
:1003A2008316031388120812081088100811881186
:1003B20083128812081288110811881008100D2063
:1003C2000D200D208814081488160A2088120D208A
:1003D20088160A2088120D2088160A2088120D20FD
:1003E200081088160A2088120D2088160A20881202
:1003F2008810881588160A2088120D208811081482
:1004020088160A208812081088160A2088120D20E1
:1004120088160A208812081488160A2088120D20CD
:10042200081088160A2088128815081588140814DE
:0C04320088160A2088120D206E140800A5
:10043E000530831203139200F93083169200831253
:0E044E0095010C3097009B010C309D000800BA
:10045C00CE30831603139F00413083129F0001306E
:06046C0083168500080064
:10047200DE23831603138601870188010330890076
:100482002E228312860187018801D1211F22890130
:100492000C300317A2001A208312C83003179D00E4
:1004A2009E017A20013083120317A2001A20013024
:1004B20003179D0001309E00DD309F00C220090815
:1004C200013A031DC92A01300317A2001A200C3079
:1004D2000317A2001A20013003179D0001309E006D
:1004E200D1309F00C220F9309B00643003179D0079
:1004F20019309E007A2083129B0101300317A2005B
:100502001A20013003179D0001309E00C3309F0066
:10051200C220AC217008EF0001300317A2001A209C
:10052200013003179D0001309E0040309F00C22021
:100532006F0803179800990112309A006A2102305D
:100542009D0001309E0012309F00C220B830031778
:100552009D000B309E007A20013083120317A20007
:100562001A206F080F3C0318BF2A013003179D00A1
:1005720001309E0066309F00C220C72A0130031757
:100582009D0001309E0059309F00C2204B2137212F
:1005920083120908023A031D3D2B01300317A20002
:1005A2001A200C300317A2001A20013003179D00F5
:1005B20001309E004D309F00C220F9309500B730C7
:1005C20003179D000C309E007A2083129501F930AA
:1005D2009B00B73003179D000C309E007A208312D7
:1005E2009B0101300317A2001A20013003179D005E
:1005F20001309E00A0309F00C220AC217008EF00A5
:1006020001300317A2001A20013003179D000130A8
:100612009E00AE309F00C2206F0803179800990118
:1006220012309A006A2102309D0001309E00123081
:100632009F00C220B83003179D000B309E007A2025
:10064200013083120317A2001A206F080F3C03180F
:10065200332B013003179D0001309E00BB309F00F9
:10066200C2203B2B013003179D0001309E00333026
:0C0672009F00C2204B2137214D2A3E2B57
:1007BC00203084004E3083120313F0004430831633
:1007CC00EC000330ED00C521A03084004C308312C6
:1007DC00F00092308316EC000330ED00C5210800C8
:1006880050346F347534723469346E3467342E34B0
:040698002E340034C8
:10069C0045346E346A346F34793420343A34293426
:0206AC00003418
:1006AE0050346534723466346534633474342034B3
:0A06BE00743465346D347034003478
:1006C8005434683465342034743465346D3470348B
:0A06D8002034693473343A340034DE
:1006E20050347234653470346134723469346E3427
:0806F20067342E342E3400346D
:1006FA005034653472346634653463347434203467
:0A070A00743465346D34703400342B
:1007140041346434643420346934633465340034DB
:1007240043346834653463346B3469346E34673409
:0C0734002034743465346D3470340034AB
:100740005434683465342034743465346D34703412
:0A0750002034693473343A34003465
:10075A004134643464342034693463346534003495
:10076A0043346834653463346B3469346E346734C3
:0C077A002034743465346D347034003465
:1007860050347234653470346134723469346E3482
:0807960067342E342E340034C8
:10079E00533465346C3465346334743420346134CA
:0E07AE0020346434723469346E346B34003499
:02400E004A2F37
:00000001FF
